:100000000C9434000C9451000C9451000C94510049
:100010000C9451000C9451000C9451000C9451001C
:100020000C9451000C9451000C9451000C9451000C
:100030000C9451000C9451000C9451000C945100FC
:100040000C9451000C9451000C9451000C943908FC
:100050000C9451000C9451000C9451000C945100DC
:100060000C9451000C94510011241FBECFEFD8E026
:10007000DEBFCDBF11E0A0E0B1E0E8E9F9E102C0E8
:1000800005900D92A032B107D9F711E0A0E2B1E0DE
:1000900001C01D92A732B107E1F70E94510C0C94E8
:1000A000CA0C0C940000EF92FF920F931F937B01F8
:1000B0008C0120E030E040E05FE40E94530388239D
:1000C0008CF0C801B70120E030E040E05FE40E941E
:1000D000CB010E94B3039B01AC0120503040404053
:1000E000504806C0C801B7010E94B3039B01AC0190
:1000F000B901CA011F910F91FF90EF900895A0E000
:10010000B0E0E5E8F0E00C94930CDC012B01FA017F
:100110009C91923008F439C1EB018881823008F457
:1001200033C1943069F4843009F02FC111969C9149
:1001300011978981981709F428C1A0E0B1E025C181
:10014000843009F421C18230A9F4923009F01DC134
:100150009A01AD0188E0EA010990AE01E901099236
:100160009E018150C1F7E201898111969C918923FA
:10017000818308C1923009F407C112962D903C90FA
:100180001397EB018A819B811496AD90BD90CD9021
:10019000DC901797EC80FD800E811F819101281B58
:1001A000390BB90137FF04C066277727621B730B31
:1001B000603271050CF061C0121613066CF5370140
:1001C0004801062E04C096948794779467940A9405
:1001D000D2F721E030E040E050E004C0220F331FAE
:1001E000441F551F6A95D2F721503040404050407F
:1001F0002E213F2140235123211531054105510571
:1002000021F021E030E040E050E079018A01E62869
:10021000F728082919293CC0232BD1F1260E371EB7
:1002200035014601062E04C096948794779467940E
:100230000A94D2F721E030E040E050E004C0220F01
:10024000331F441F551F6A95D2F72150304040405C
:1002500050402A213B214C215D21211531054105CA
:10026000510521F021E030E040E050E059016A0101
:10027000A628B728C828D9280BC0821593052CF0CA
:100280001C01AA24BB24650103C0EE24FF248701BE
:1002900011969C91D20111968C91981709F445C042
:1002A000992339F0A80197012A193B094C095D09E6
:1002B00006C0A60195012E193F09400B510B57FDB1
:1002C00008C0118233822282248335834683578378
:1002D0001DC081E081833382228288279927DC0137
:1002E000821B930BA40BB50B84839583A683B783E2
:1002F0000DC0220F331F441F551F248335834683AF
:1003000057838281938101979383828324813581EE
:1003100046815781DA01C9010197A109B1098F5FAF
:100320009F4FAF4FBF4328F30BC09183338222828C
:10033000EA0CFB1C0C1D1D1DE482F582068317834D
:1003400083E08083248135814681578157FF1AC01D
:10035000C901AA2797FDA095BA2F81709070A0704F
:10036000B0705695479537952795822B932BA42BE4
:10037000B52B84839583A683B7838281938101966D
:1003800093838283DF0101C0D201CD01CDB7DEB7F7
:10039000E2E10C94AF0CA0E2B0E0E1EDF1E00C94EE
:1003A0009F0C69837A838B839C832D833E834F8349
:1003B0005887E9E0EE2EF12CEC0EFD1ECE010196E1
:1003C000B7010E94DC048E010F5E1F4FCE0105961F
:1003D000B8010E94DC048A8991E089278A8BC701D1
:1003E000B801AE01475E5F4F0E947F000E94070484
:1003F000A096E6E00C94BB0CA0E2B0E0E2E0F2E0F4
:100400000C949F0C69837A838B839C832D833E831A
:100410004F835887F9E0EF2EF12CEC0EFD1ECE0134
:100420000196B7010E94DC048E010F5E1F4FCE01C2
:100430000596B8010E94DC04C701B801AE01475E11
:100440005F4F0E947F000E940704A096E6E00C9494
:10045000BB0CA0E2B0E0EFE2F2E00C94930C6983F5
:100460007A838B839C832D833E834F835887CE0171
:100470000196BE01675F7F4F0E94DC04CE010596A6
:10048000BE016F5E7F4F0E94DC049985923088F038
:1004900089898230C8F0943019F4823051F404C054
:1004A000843029F4923081F480E091E0C6C092302B
:1004B00049F420E09A858A89981321E02A87CE01A1
:1004C0000996BBC0823049F420E09A858A89981346
:1004D00021E02A8BCE014196B0C02D843E844F840A
:1004E00058886D887E888F88988CEE24FF24870139
:1004F000AA24BB24650140E050E060E070E0E0E049
:10050000F0E0C10181709070892BE9F0E60CF71CD6
:10051000081D191D9A01AB012A0D3B1D4C1D5D1DC7
:1005200080E090E0A0E0B0E0E614F70408051905CB
:1005300020F481E090E0A0E0B0E0BA01A901480F0A
:10054000591F6A1F7B1FAA0CBB1CCC1CDD1C97FE0D
:1005500008C081E090E0A0E0B0E0A82AB92ACA2A49
:10056000DB2A3196E032F10549F0660C771C881CD5
:10057000991C5694479437942794C3CFFA85EA89F7
:100580002B893C898B859C85280F391F2E5F3F4F17
:1005900017C0CA0181709070892B61F0169507957C
:1005A000F794E79480E090E0A0E0B0E8E82AF92A28
:1005B0000A2B1B2B76956795579547952F5F3F4FD5
:1005C00077FDE7CF0CC0440F551F661F771F17FD3F
:1005D0004160EE0CFF1C001F111F215030404030C5
:1005E00090E0590790E0690790E4790760F32B8F5A
:1005F0003C8FDB01CA018F779070A070B07080349F
:100600009105A105B10561F447FD0AC0E114F104AB
:100610000105110529F0405C5F4F6F4F7F4F407817
:100620001A8EFE1711F081E08A8F4D8F5E8F6F8FCB
:1006300078A383E0898FCE0149960E940704A09693
:10064000E2E10C94AF0CA8E1B0E0E9E2F3E00C9435
:100650009F0C69837A838B839C832D833E834F8396
:10066000588789E0E82EF12CEC0EFD1ECE01019694
:10067000B7010E94DC048E010F5E1F4FCE0105966C
:10068000B8010E94DC048985823040F0898982307B
:1006900028F0C701B8010E94540501C08FEF689689
:1006A000E6E00C94BB0CA8E1B0E0E9E5F3E00C94C3
:1006B0009F0C69837A838B839C832D833E834F8336
:1006C000588789E0E82EF12CEC0EFD1ECE01019634
:1006D000B7010E94DC048E010F5E1F4FCE0105960C
:1006E000B8010E94DC048985823040F0898982301B
:1006F00028F0C701B8010E94540501C08FEF689629
:10070000E6E00C94BB0CA8E1B0E0E9E8F3E00C945F
:100710009F0C69837A838B839C832D833E834F83D5
:10072000588789E0E82EF12CEC0EFD1ECE010196D3
:10073000B7010E94DC048E010F5E1F4FCE010596AB
:10074000B8010E94DC048985823040F089898230BA
:1007500028F0C701B8010E94540501C081E06896E5
:10076000E6E00C94BB0CACE0B0E0E9EBF3E00C94F9
:10077000A30C69837A838B839C83CE010196BE018F
:100780006B5F7F4F0E94DC048D81823061F182308B
:1007900050F1843021F48E81882351F12EC02F81B5
:1007A000388537FD20C06E812F3131051CF066235E
:1007B000F9F023C08EE190E0821B930B29853A85E6
:1007C0004B855C8504C056954795379527958A9546
:1007D000D2F76623B1F050954095309521953F4F63
:1007E0004F4F5F4F0EC020E030E040E050E009C0C6
:1007F0002FEF3FEF4FEF5FE704C020E030E040E035
:1008000050E8B901CA012C96E2E00C94BF0CDF92CB
:10081000EF92FF920F931F93FC01E480F580068115
:100820001781D1808081823048F480E090E0A0E19F
:10083000B0E0E82AF92A0A2B1B2BA5C0843009F462
:100840009FC0823021F4EE24FF24870105C0E1140B
:10085000F1040105110519F4E0E0F0E096C06281B1
:1008600073819FEF623879070CF05BC022E83FEF9D
:10087000261B370B2A3131052CF020E030E040E018
:1008800050E02AC0B801A701022E04C076956795F2
:10089000579547950A94D2F781E090E0A0E0B0E048
:1008A00004C0880F991FAA1FBB1F2A95D2F7019772
:1008B000A109B1098E219F21A023B1230097A10591
:1008C000B10521F081E090E0A0E0B0E09A01AB0139
:1008D000282B392B4A2B5B2BDA01C9018F779070BB
:1008E000A070B07080349105A105B10539F427FFDF
:1008F00009C0205C3F4F4F4F5F4F04C0215C3F4F0A
:100900004F4F5F4FE0E0F0E02030A0E03A07A0E07A
:100910004A07A0E45A0710F0E1E0F0E079018A010B
:1009200027C06038710564F5FB01E158FF4FD8011D
:10093000C7018F779070A070B07080349105A105C9
:10094000B10539F4E7FE0DC080E490E0A0E0B0E02E
:1009500004C08FE390E0A0E0B0E0E80EF91E0A1FAB
:100960001B1F17FF05C016950795F794E79431965E
:1009700087E016950795F794E7948A95D1F705C017
:10098000EE24FF248701EFEFF0E06E2F67956627D6
:100990006795902F9F77D794DD24D7948E2F8695D7
:1009A000492F462B582F5D29B701CA011F910F917E
:1009B000FF90EF90DF900895FC01DB0140815181B1
:1009C0002281622F6F7770E0221F2227221F9381DE
:1009D000892F880F822B282F30E0991F9927991F84
:1009E00011969C93119721153105A9F541155105D3
:1009F0006105710511F482E037C082E89FEF13961C
:100A00009C938E9312979A01AB0167E0220F331FDC
:100A1000441F551F6A95D1F783E08C930DC0220FB8
:100A2000331F441F551F12968D919C911397019768
:100A300013969C938E931297203080E0380780E0C5
:100A4000480780E4580758F314962D933D934D932F
:100A50005C93179708952F3F310579F4411551059F
:100A60006105710519F484E08C93089564FF03C057
:100A700081E08C9312C01C9210C02F573040139607
:100A80003C932E93129783E08C9387E0440F551F7D
:100A9000661F771F8A95D1F7706414964D935D9306
:100AA0006D937C93179708951F93DC01FB019C9134
:100AB000923008F447C08081823008F443C09430FB
:100AC00051F411961C91843099F58181682F70E062
:100AD000611B71093FC0843021F0923031F48230C3
:100AE000B9F18181882389F12DC011961C9111974C
:100AF0008230F1F081811817D9F412962D913C9132
:100B00001397828193818217930794F028173907EE
:100B1000BCF014968D919D910D90BC91A02D2481D7
:100B2000358146815781281739074A075B0718F432
:100B3000112341F00AC082179307A407B50740F4B8
:100B4000112319F061E070E005C06FEF7FEF02C084
:100B500060E070E0CB011F910895DF93CF9300D048
:100B600000D00F92CDB7DEB789836A834B838A8129
:100B7000883008F09CC08981833008F098C0898152
:100B8000282F30E03D832C838C819D81813091051D
:100B9000B9F12C813D812230310509F45DC08C8191
:100BA0009D81009709F083C08B818130A1F4A4E27C
:100BB000B0E0E4E2F0E08081482F8A81282F30E025
:100BC00081E090E0022E02C0880F991F0A94E2F79C
:100BD000842B8C936CC0A4E2B0E0E4E2F0E080816E
:100BE000482F8A81282F30E081E090E0022E02C059
:100BF000880F991F0A94E2F7809584238C9357C03D
:100C00008B818130A1F4A7E2B0E0E7E2F0E08081DF
:100C1000482F8A81282F30E081E090E0022E02C028
:100C2000880F991F0A94E2F7842B8C9340C0A7E2A7
:100C3000B0E0E7E2F0E08081482F8A81282F30E0A1
:100C400081E090E0022E02C0880F991F0A94E2F71B
:100C5000809584238C932BC08B818130A1F4AAE2F0
:100C6000B0E0EAE2F0E08081482F8A81282F30E06E
:100C700081E090E0022E02C0880F991F0A94E2F7EB
:100C8000842B8C9314C0AAE2B0E0EAE2F0E0808109
:100C9000482F8A81282F30E081E090E0022E02C0A8
:100CA000880F991F0A94E2F7809584238C930F9004
:100CB0000F900F900F900F90CF91DF910895DF93D9
:100CC000CF9300D000D00F92CDB7DEB789836A836F
:100CD0004B838A81883008F0A7C08981833008F06F
:100CE000A3C08981282F30E03D832C838C819D8196
:100CF00081309105D9F12C813D812230310509F4F3
:100D000065C08C819D81009709F08EC08B818823FE
:100D1000A9F4A5E2B0E0E5E2F0E08081482F8A8105
:100D2000282F30E081E090E0022E02C0880F991F4A
:100D30000A94E2F7809584238C9376C08B8181306E
:100D400009F072C0A5E2B0E0E5E2F0E08081482F52
:100D50008A81282F30E081E090E0022E02C0880FC7
:100D6000991F0A94E2F7842B8C935EC08B818823B1
:100D7000A9F4A8E2B0E0E8E2F0E08081482F8A819F
:100D8000282F30E081E090E0022E02C0880F991FEA
:100D90000A94E2F7809584238C9346C08B8181303E
:100DA00009F042C0A8E2B0E0E8E2F0E08081482F1C
:100DB0008A81282F30E081E090E0022E02C0880F67
:100DC000991F0A94E2F7842B8C932EC08B81882381
:100DD000A9F4ABE2B0E0EBE2F0E08081482F8A8139
:100DE000282F30E081E090E0022E02C0880F991F8A
:100DF0000A94E2F7809584238C9316C08B8181300E
:100E000099F4ABE2B0E0EBE2F0E08081482F8A8118
:100E1000282F30E081E090E0022E02C0880F991F59
:100E20000A94E2F7842B8C930F900F900F900F9001
:100E30000F90CF91DF910895DF93CF93CDB7DEB7B9
:100E400028970FB6F894DEBF0FBECDBF89836A83A3
:100E50008A81883008F067C08981833008F063C0D8
:100E60008981282F30E038872F834F815885413082
:100E7000510529F18F81988582309105D1F12F811B
:100E800038852115310509F04EC0E3E2F0E080819C
:100E9000282F30E08A81882F90E0A90102C0559563
:100EA00047958A95E2F7CA0181709070882319F0FE
:100EB00051E05D8301C01D828D818E8335C0E6E2E5
:100EC000F0E08081282F30E08A81882F90E0A9010E
:100ED00002C0559547958A95E2F7CA0181709070D6
:100EE000882319F051E05C8301C01C828C818E83C1
:100EF0001BC0E9E2F0E08081282F30E08A81882F52
:100F000090E0A90102C0559547958A95E2F7CA017C
:100F100081709070882319F051E05B8301C01B82BF
:100F20008B818E8301C01E828E8128960FB6F89425
:100F3000DEBF0FBECDBFCF91DF910895DF93CF937A
:100F400000D000D0CDB7DEB789836A838981833032
:100F500008F58981282F30E03C832B838B819C818D
:100F60008130910571F02B813C812230310571F087
:100F70008B819C81009771F4E4E2F0E08A818083A8
:100F800009C0E7E2F0E08A81808304C0EAE2F0E091
:100F90008A8180830F900F900F900F90CF91DF91F7
:100FA0000895DF93CF9300D000D0CDB7DEB789830B
:100FB0006A838981833008F58981282F30E03C835A
:100FC0002B838B819C818130910571F02B813C8139
:100FD0002230310571F08B819C81009771F4E5E23C
:100FE000F0E08A81808309C0E8E2F0E08A818083B2
:100FF00004C0EBE2F0E08A8180830F900F900F90A5
:101000000F90CF91DF910895DF93CF9300D000D060
:10101000CDB7DEB789838981833010F58981282F88
:1010200030E03C832B838B819C818130910571F072
:101030002B813C812230310571F08B819C8100979E
:1010400079F4E3E2F0E090819A830BC0E6E2F0E00D
:1010500020812A8306C0E9E2F0E030813A8301C0B2
:101060001A828A810F900F900F900F90CF91DF918D
:1010700008951F920F920FB60F9211242F933F9352
:101080004F935F936F937F938F939F93AF93BF9390
:10109000EF93FF93DF93CF93CDB7DEB7809120011D
:1010A00090912101009729F0E0912001F091210118
:1010B0000995CF91DF91FF91EF91BF91AF919F91F2
:1010C0008F917F916F915F914F913F912F910F90F1
:1010D0000FBE0F901F9018951F920F920FB60F9290
:1010E00011242F933F934F935F936F937F938F932D
:1010F0009F93AF93BF93EF93FF93DF93CF93CDB7BE
:10110000DEB78091220190912301009729F0E091B0
:101110002201F09123010995CF91DF91FF91EF9189
:10112000BF91AF919F918F917F916F915F914F91FF
:101130003F912F910F900FBE0F901F9018951F9207
:101140000F920FB60F9211242F933F934F935F93FB
:101150006F937F938F939F93AF93BF93EF93FF937F
:10116000DF93CF93CDB7DEB7809124019091250115
:10117000009729F0E0912401F09125010995CF9184
:10118000DF91FF91EF91BF91AF919F918F917F91EF
:101190006F915F914F913F912F910F900FBE0F90E4
:1011A0001F901895DF93CF9300D000D0CDB7DEB756
:1011B0009C838B831A821982E0ECF0E082E08083CA
:1011C000E1ECF0E088E18083A2ECB0E0E2ECF0E05A
:1011D0008081282F2F7CEB81FC818181882F90E0FA
:1011E00082959295907F9827807F9827822B8C9369
:1011F000A2ECB0E0E2ECF0E08081282F277FEB81C9
:10120000FC818281882F90E0880F991F880F991F99
:10121000880F991F822B8C93A2ECB0E0E2ECF0E0F7
:101220008081282F297FEB81FC818081882F90E0AD
:10123000880F991F822B8C93EB81FC818381948191
:10124000A581B681880F991FAA1FBB1F880F991F00
:10125000AA1FBB1F880F991FAA1FBB1F9C01AD01AE
:1012600080E094E2A4EFB0E0BC01CD010E94710CDB
:10127000DA01C90101979A838983E5ECF0E089815D
:101280009A81892F99278083E4ECF0E0898180831B
:101290000F900F900F900F90CF91DF910895DF93F3
:1012A000CF9300D0CDB7DEB79A838983E0ECF0E02E
:1012B0008081882F90E0807290700097B9F3E6ECFF
:1012C000F0E0898180830F900F90CF91DF91089596
:1012D000DF93CF93CDB7DEB7E0ECF0E080818823D9
:1012E000DCF7E6ECF0E08081882F90E0CF91DF9191
:1012F0000895DF93CF9300D00F92CDB7DEB79B83D5
:101300008A83198210C08981282F30E08A819B81CD
:10131000FC01E20FF31F8081882F90E00E944F09AB
:1013200089818F5F89838981282F30E08A819B8121
:10133000FC01E20FF31F8081882329F70F900F90A3
:101340000F90CF91DF9108950F931F93DF93CF9369
:1013500000D00F92CDB7DEB79B838A831982898133
:10136000282F30E08A819B818C01020F131F0E947D
:101370006809F80180830FC089818F5F8983898123
:10138000282F30E08A819B818C01020F131F0E945D
:101390006809F80180838981282F30E08A819B8148
:1013A000FC01E20FF31F8081833231F78981282FFE
:1013B00030E08A819B81FC01E20FF31F10820F90C5
:1013C0000F900F90CF91DF911F910F910895DF93B0
:1013D000CF93CDB7DEB72A970FB6F894DEBF0FBE16
:1013E000CDBF9E838D834F83588769877A87198203
:1013F0001A821B821C8217C029813A818D819E81AD
:10140000FC01E20FF31F8081882F90E00E944F09BA
:1014100089819A81AB81BC810196A11DB11D89830F
:101420009A83AB83BC8329813A814B815C818F8114
:101430009885A985BA85281739074A075B07E0F21E
:101440002A960FB6F894DEBF0FBECDBFCF91DF91C5
:1014500008950F931F93DF93CF93CDB7DEB72A97ED
:101460000FB6F894DEBF0FBECDBF9E838D834F8332
:10147000588769877A8719821A821B821C8216C054
:1014800029813A818D819E818C01020F131F0E9458
:101490006809F801808389819A81AB81BC810196BA
:1014A000A11DB11D89839A83AB83BC8329813A81B5
:1014B0004B815C818F819885A985BA85281739076A
:1014C0004A075B07E8F22A960FB6F894DEBF0FBE14
:1014D000CDBFCF91DF911F910F910895DF93CF93EF
:1014E0000F92CDB7DEB78983A1ECB0E0E1ECF0E07C
:1014F00080818F718C93A1ECB0E0E1ECF0E0808111
:10150000282F8981882F90E0880F991F82959295C6
:10151000907F9827807F9827822B8C930F90CF9174
:10152000DF910895DF93CF9300D0CDB7DEB79A83D4
:10153000898389819A8190932101809320010F9062
:101540000F90CF91DF910895DF93CF9300D0CDB767
:10155000DEB79A83898389819A819093230180934E
:1015600022010F900F90CF91DF910895DF93CF93D9
:1015700000D0CDB7DEB79A83898389819A81909311
:101580002501809324010F900F90CF91DF91089552
:101590000F931F93DF93CF93CDB7DEB728970FB686
:1015A000F894DEBF0FBECDBF6A837B838C839D839F
:1015B0004E8338872F8319822DC08981282F30E0F0
:1015C0008F8198858C01020F131F8A819B81AC81CA
:1015D000BD812AE030E040E050E0BC01CD010E9436
:1015E000710CDC01CB01F80180838A819B81AC8185
:1015F000BD812AE030E040E050E0BC01CD010E9416
:10160000710CDA01C9018A839B83AC83BD83898114
:101610008F5F898399818E81981778F228960FB60B
:10162000F894DEBF0FBECDBFCF91DF911F910F9118
:101630000895DF93CF9300D00F92CDB7DEB79B8391
:101640008A83EA81FB8180816FEF0E949E07198265
:1016500029C0EA81FB814281EA81FB8123813481B7
:101660008981882F90E0F901E80FF91F9081842F7C
:10167000692F41E00E94AD05EA81FB814281EA8148
:10168000FB81238134818981882F90E0F901E80F63
:10169000F91F9081842F692F41E00E945F068981A4
:1016A0008F5F8983EA81FB8191818981891788F223
:1016B0000F900F900F90CF91DF910895DF93CF930C
:1016C000CDB7DEB76D970FB6F894DEBF0FBECDBFB6
:1016D000998F888F4A8F5B8F6C8F7D8FE88DF98D06
:1016E00041818A8D9B8DAC8DBD8D9E01205F3F4FCA
:1016F000BC01CD010E94C80A1F86B1C0E88DF98DDA
:101700004281E88DF98D238134818F85882F90E087
:10171000F901E80FF91F9081842F692F40E00E94A2
:101720005F06E88DF98D40818F85282F30E0CE014E
:101730004096FC01E20FF31F8081882F90E0FC01AE
:10174000E85FFE4F9081842F692F0E94D10780E0CF
:1017500090E0A0E8BFE38B879C87AD87BE876B8551
:101760007C858D859E8520E030E04AE755E40E9427
:101770002902DC01CB018F839887A987BA876F8103
:10178000788589859A8520E030E040E85FE30E9413
:10179000830388232CF481E090E09E838D833FC0F7
:1017A0006F81788589859A8520E03FEF4FE757E480
:1017B0000E94230318164CF56B857C858D859E85CC
:1017C00020E030E040E251E40E942902DC01CB013C
:1017D000BC01CD010E945300DC01CB019E838D83AF
:1017E0000FC080E991E09C838B838B819C81019762
:1017F000F1F79C838B838D819E8101979E838D83DE
:101800008D819E81009769F714C06F8178858985E5
:101810009A850E945300DC01CB019E838D838D81CC
:101820009E819A83898389819A810197F1F79A83AE
:101830008983E88DF98D4281E88DF98D238134818A
:101840008F85882F90E0F901E80FF91F9081842F90
:10185000692F41E00E945F068F858F5F8F87E88D3B
:10186000F98D91818F85891708F448CF6D960FB651
:10187000F894DEBF0FBECDBFCF91DF910895DF9307
:10188000CF9300D0CDB7DEB79A838983E981FA81FF
:10189000808160E00E94D1070F900F90CF91DF917F
:1018A0000895DF93CF93CDB7DEB789E191E00E9431
:1018B000D20884E191E00E94190B84E191E046E1B5
:1018C00052E060E070E00E945E0BF7CFDF93CF93B1
:1018D000CDB7DEB70E94680980932601CF91DF91D2
:1018E0000895A1E21A2EAA1BBB1BFD010DC0AA1F61
:1018F000BB1FEE1FFF1FA217B307E407F50720F079
:10190000A21BB30BE40BF50B661F771F881F991FF3
:101910001A9469F760957095809590959B01AC013C
:10192000BD01CF0108952F923F924F925F926F9227
:101930007F928F929F92AF92BF92CF92DF92EF925F
:10194000FF920F931F93CF93DF93CDB7DEB7CA1BE0
:10195000DB0B0FB6F894DEBF0FBECDBF09942A880B
:10196000398848885F846E847D848C849B84AA84B3
:10197000B984C884DF80EE80FD800C811B81AA8140
:10198000B981CE0FD11D0FB6F894DEBF0FBECDBF0B
:08199000ED010895F894FFCF6A
:1019980000000000000000003F065B4F666D7D07F9
:1019A8007F6F00010102001201070000802500007E
:00000001FF
